:0400000015EF02F006
:100008004382FACF0FF0FBCF10F0E9CF11F0EACF1F
:1000180012F0E1CF13F0E2CF14F0D9CF15F0DACF18
:1000280016F0F3CF17F0F4CF18F0F6CF19F0F7CF9A
:100038001AF0F8CF1BF0F5CF1CF0BAA640D0BA964C
:100048006BECD5F00101574B582B0F0E01015719D6
:1000580001015811D8A403D0010E0101C46F1E0E6E
:100068000101571901015811D8A411D00101AC514F
:10007800D8A40DD0000E0101586F000E576F000E66
:100088000201AF6F010EAE6F010E0101AC6F1F0EC2
:100098000101571901015811D8A411D00101AC056B
:1000A800D8A40DD0000E0101586F000E576F000E36
:1000B8000201AF6F010EAE6F000E0101AC6FF2A42A
:1000C80009D0F294010E0101DA6FF1ECA8F00501F4
:1000D800DB4BDC2BB7AE1FD0B79EB68E010E0101ED
:1000E800766FECC121F1EDC122F1EEC123F10F01D0
:1000F800415142CF0DF00E6A0DC00EF00D6A0D1081
:10010800096E0E500A6E2FECD3F009C0ECF10AC04C
:10011800EDF10BC0EEF1A4A41CD0A494A3847BC27F
:10012800CCF47CC2CDF47DC2CEF40F014F5150CF38
:100138000DF00E6A0DC00EF00D6A0D10096E0E500E
:100148000A6E2FECD3F009C07BF20AC07CF20BC018
:100158007DF2A4A21BD0A492A3820CC287F40DC284
:1001680088F40EC289F4BC50BDCF0DF00E6A0DC0E4
:100178000EF00D6A0D10096E0E500A6E2FECD3F0BA
:1001880009C00CF20AC00DF20BC00EF2B7A02BD0BA
:10019800B790B680010E0101B46FEFC15AF6F0C1F5
:1001A8005BF6F1C15CF60F014A514BCF0DF00E6AB8
:1001B8000DC00EF00D6A0D10096E0E500A6E2FEC70
:1001C800D3F009C0EFF10AC0F0F10BC0F1F121C181
:1001D80021F222C122F223C123F2ECC1F2F1EDC1D6
:1001E800F3F1EEC1F4F1B7A22AD0B792B682010EAC
:1001F8000101DE6FF8C163F6F9C164F6FAC165F66C
:10020800785079CF0DF00E6A0DC00EF00D6A0D1002
:10021800096E0E500A6E2FECD3F009C0F8F10AC02F
:10022800F9F10BC0FAF1CCC47EF2CDC47FF2CEC492
:1002380080F27BC2FBF17CC2FCF17DC2FDF1B7A468
:100248002AD0B794B684010E0101676FE6C145F65E
:10025800E7C146F6E8C147F6755076CF0DF00E6A4D
:100268000DC00EF00D6A0D10096E0E500A6E2FECBF
:10027800D3F009C0E6F10AC0E7F10BC0E8F187C482
:100288000FF288C410F289C411F20CC2E9F10DC250
:10029800EAF10EC2EBF19EA01CD09E9002019C4B8D
:1002A8009D2B0201B64BB72B0201B04BB12B0201BB
:1002B8009E4B9F2B0201B84BB92B0201C04BC12B9F
:1002C8000201BA4BBB2B0501DD4BDE2B010E0101F0
:1002D800C66FB7A81BD0B7984DC14FF14EC150F1AA
:1002E80070500E6E0D6A6F500D2401014D6F000E97
:1002F8000E2001014E6F53C1B4F254C1B5F29CC235
:1003080053F19DC254F1010E0101BB6FB7AA20D071
:10031800B79A37C139F138C13AF10F0148510E6E19
:100328000D6A0F0147510D240101376F0F01000EAF
:100338000E200101386F51C1B2F252C1B3F29EC210
:1003480051F19FC252F1000E02018B6F010E8A6FAC
:10035800B7A61DD0B7965DC161F15EC162F1735059
:100368000E6E0D6A72500D2401015D6F000E0E2095
:1003780001015E6F55C1C2F256C1C3F2C0C255F148
:10038800C1C256F1000E0201CB6F010ECA6FA4AABA
:100398002AD00F0122A304D00F0122990F0122892C
:1003A8000101B305D8A41ED00F011D510D6E0E6AB0
:1003B8000101DF51020D000EF324D96E050EF42061
:1003C800DA6E0DC0DEFF0EC0DDFF200E050100193C
:1003D80005010111D8A406D00A0E0101DF6102D07F
:1003E8000101DF2BA49A1CC0F5FF1BC0F8FF1AC03F
:1003F800F7FF19C0F6FF18C0F4FF17C0F3FF16C0C7
:10040800DAFF15C0D9FF14C0E2FF13C0E1FF12C024
:10041800EAFF11C0E9FF10C0FBFF0FC0FAFF4392CB
:060428001100E5EFC9F030
:10FB780000010000000A00000064000000E8030023
:10FB88000010270000A086010040420F00809698D0
:10FB98000000E1F50500CA9A3B00803FCDCC3DD777
:10FBA800233C12833AB7D138C62737388635C0D6B2
:10FBB80033CC2B32708930E7DB2EE53C1E42A20D98
:10FBC80000803F00204100C842007A44401C465053
:10FBD800C34724744997184BBCBE4C6B6E4E031533
:10FBE8005079AD60F34971F44A489595C7C1DC4531
:10FBF800DC6DC3B333403401489DB04500DA4200A0
:10FC0800803F5646442052554E2054494D45204584
:10FC180052524F5220434F554E544552004545507D
:10FC2800524F4D204C41535420544852454520458D
:10FC380052524F52004D4F544F5220534C4950206E
:10FC4800434F554E54455200524F544F5220534C37
:10FC5800495020434F554E54455200454550524F48
:10FC68004D204552524F522054494D450050495459
:10FC7800434820454550524F4D20464C414700458A
:10FC88004550524F4D204552524F5220464C414705
:10FC98000056464420494F204552524F5220464C68
:10FCA8004147005254303120527633204B4156415F
:10FCB8004E4F4F5200544F414C20504F5745522001
:10FCC800464143544F52005646445F53484F52549E
:10FCD8005F434952435549540057494E4420312007
:10FCE80054454D5020464C41470057494E44203218
:10FCF8002054454D5020464C41470047454E20452D
:10FD08004550524F4D20464C4147004552524F52A4
:10FD180020494E20535452494E47004443204255EF
:10FD28005320564F4C54414745004D4F544F522095
:10FD3800534C49502052504D00524F544F5220536B
:10FD48004C49502052504D00592D504F5745522084
:10FD5800464143544F520057494E44203220494EA1
:10FD68005354414E54004443204255532043555266
:10FD780052454E540054555242494E452053544121
:10FD880054450047454E455241544F522052504D1C
:10FD9800005646445F434F4D4D555F4552520054FF
:10FDA800555242494E455F55535F4F53005646449E
:10FDB80020424F54544F4D204354005646445F52FE
:10FDC800554E5F54494D45005646445F4552524F83
:10FDD800525F494F0052414D50205550204C4F4FD3
:10FDE80050004C4153542035204552524F52005731
:10FDF800494E445F494E5354414E5400494E49546C
:10FE0800414C2044454C41590050484153452041FC
:10FE18004E474C450054454D504552415455524566
:10FE28000054555242494E452052504D004D414EC6
:10FE380055414C5F53544F500054555242494E451A
:10FE48002049440057494E44203220415647005427
:10FE5800555242494E455F4F4C004D4F544F525FEB
:10FE6800534C495000524F544F525F534C49500025
:10FE780054555242494E455F4E52004D45415552E8
:10FE8800455F4552520056464420544F5020435433
:10FE98000044435F4558545F4C4F570057535F4DDC
:10FEA800494E5F4D415800564F4C545F48494748AA
:10FEB8000043555252454E545F4800504F574552E3
:10FEC8005F4D494E004C4F474943204F5450005016
:10FED800484153455F5345510056464420455252C8
:10FEE8004F5200434F4E544143544F520042204317
:10FEF800555252454E5400522043555252454E5485
:10FF080000592043555252454E5400504F574552C0
:10FF18005F4D4158004652455155454E435900538F
:10FF2800657269616C204E6F0050495443485F46C2
:10FF3800420053544F5050494E470057494E4420B1
:10FF4800415647004552524F52204E4F004E4F5F88
:10FF58004552524F5200564F4C545F4C4F57005227
:10FF6800554E4E494E47004443425F4C5F48005649
:10FF78004644204F54500053544152545550002881
:10FF88006E756C6C290047454E5F464200564644E4
:10FF98005F4F430052414D5055500047454E5F4F0B
:10FFA80053004220564F4C54005220564F4C540098
:10FFB8005920564F4C540025342E303166002534D4
:10FFC8002E3032660056464420487A0025342E30BA
:10FFD8006600444154450046524551004B56415233
:10FFE80000592D4B57004B564100256400257300DE
:08FFF8002575000A000D000050
:020000040001F9
:10000000030E01014B1901014C11D8B4CCEC98F04E
:10001000F80E0001A76FFF0E0001A86F4BC1A9F0F9
:100020004CC1AAF09AEC86F02C0E30ECD5F0F50E0F
:100030000001A76FFF0E0001A86FAB0E0001A96FB2
:10004000FC0E0001AA6F9AEC86F02C0E30ECD5F075
:10005000C60E0001A76FFF0E0001A86F36C2A9F0FF
:1000600037C2AAF038C2ABF09AEC86F02C0E30EC16
:10007000D5F0C60E0001A76FFF0E0001A86FD2C019
:10008000A9F0D3C0AAF0D4C0ABF09AEC86F02C0E45
:1000900030ECD5F0C60E0001A76FFF0E0001A86F6F
:1000A00045C2A9F046C2AAF047C2ABF09AEC86F06E
:1000B0002C0E30ECD5F0C60E0001A76FFF0E00012C
:1000C000A86FBAC4A9F0BBC4AAF0BCC4ABF09AEC48
:1000D00086F02C0E30ECD5F0C60E0001A76FFF0E97
:1000E0000001A86F2DC0A9F02EC0AAF02FC0ABF060
:1000F0009AEC86F02C0E30ECD5F0F20E0001A76FD2
:10010000FF0E0001A86F8EC2A9F08FC2AAF09AEC70
:1001100086F02C0E30ECD5F0C60E0001A76FFF0E56
:100120000001A86F12C1A9F013C1AAF014C1ABF06D
:100130009AEC86F02C0E30ECD5F0C60E0001A76FBD
:10014000FF0E0001A86F24C1A9F025C1AAF026C1A5
:10015000ABF09AEC86F02C0E30ECD5F0F20E0001EC
:10016000A76FFF0E0001A86FD5C0A9F00001AA6B10
:100170009AEC86F02C0E30ECD5F0F20E0001A76F51
:10018000FF0E0001A86F59C1A9F05AC1AAF09AEC5C
:1001900086F02C0E30ECD5F0BF0E0001A76FFF0EDD
:1001A0000001A86F12C2A9F013C2AAF014C2ABF0EA
:1001B0009AEC86F02C0E30ECD5F0D40E0001A76F2F
:1001C000FF0E0001A86F2AC0A9F02BC0AAF02CC016
:1001D000ABF09AEC86F02C0E30ECD5F0D40E00018A
:1001E000A76FFF0E0001A86F30C0A9F031C0AAF0C0
:1001F00032C0ABF09AEC86F02C0E30ECD5F0D40E79
:100200000001A76FFF0E0001A86F27C0A9F028C04A
:10021000AAF029C0ABF09AEC86F02C0E30ECD5F0A9
:10022000BF0E0001A76FFF0E0001A86F18C1A9F053
:1002300019C1AAF01AC1ABF09AEC86F02C0E30EC82
:10024000D5F0BF0E0001A76FFF0E0001A86F2DC1F2
:10025000A9F02EC1AAF02FC1ABF09AEC86F02C0EBB
:1002600030ECD5F0BF0E0001A76FFF0E0001A86FA4
:1002700003C1A9F004C1AAF005C1ABF09AEC86F065
:100280002C0E30ECD5F0C60E0001A76FFF0E00015A
:10029000A86F40C0A9F041C0AAF042C0ABF09AECF0
:1002A00086F02C0E30ECD5F0C60E0001A76FFF0EC5
:1002B0000001A86FF1C2A9F0F2C2AAF0F3C2ABF03C
:1002C0009AEC86F02C0E30ECD5F0C60E0001A76F2C
:1002D000FF0E0001A86F1BC2A9F01CC2AAF01DC22C
:1002E000ABF09AEC86F02C0E30ECD5F0C60E000187
:1002F000A76FFF0E0001A86F90C4A9F091C4AAF0E7
:1003000092C4ABF09AEC86F02C0E30ECD5F0C60E11
:100310000001A76FFF0E0001A86F2DC2A9F02EC229
:10032000AAF02FC2ABF09AEC86F02C0E30ECD5F090
:10033000C60E0001A76FFF0E0001A86F75C2A9F0DD
:1003400076C2AAF077C2ABF09AEC86F02C0E30ECB5
:10035000D5F0C60E0001A76FFF0E0001A86F09C1FE
:10036000A9F00AC1AAF00BC1ABF09AEC86F02C0EF2
:1003700030ECD5F0F20E0001A76FFF0E0001A86F60
:100380003CC0A9F00001AA6B9AEC86F02C0E30EC70
:10039000D5F0F20E0001A76FFF0E0001A86F3EC05E
:1003A000A9F00001AA6B9AEC86F02C0E30ECD5F087
:1003B000F20E0001A76FFF0E0001A86F45C1A9F062
:1003C00046C1AAF09AEC86F02C0E30ECD5F0F20E75
:1003D0000001A76FFF0E0001A86F3AC0A9F000014D
:1003E000AA6B9AEC86F02C0E30ECD5F0D4D1F50E39
:1003F0000001A76FFF0E0001A86F550E0001A96F45
:10040000FF0E0001AA6F9AEC86F02C0E30ECD5F0AE
:100410005AD2F50E0001A76FFF0E0001A86FA40EBF
:100420000001A96FFE0E0001AA6F9AEC86F02C0E57
:1004300030ECD5F048D2F50E0001A76FFF0E000199
:10044000A86FAF0E0001A96FFE0E0001AA6F9AEC13
:1004500086F02C0E30ECD5F036D2F50E0001A76FE9
:10046000FF0E0001A86F5E0E0001A96FFF0E0001D4
:10047000AA6F9AEC86F02C0E30ECD5F024D2F50E53
:100480000001A76FFF0E0001A86FCF0E0001A96F3A
:10049000FC0E0001AA6F9AEC86F02C0E30ECD5F021
:1004A00012D2F50E0001A76FFF0E0001A86FD70E44
:1004B0000001A96FFE0E0001AA6F9AEC86F02C0EC7
:1004C00030ECD5F000D2F50E0001A76FFF0E000151
:1004D000A86FDF0E0001A96FFF0E0001AA6F9AEC52
:1004E00086F02C0E30ECD5F0EED1F50E0001A76FA2
:1004F000FF0E0001A86F780E0001A96FFE0E00012B
:10050000AA6F9AEC86F02C0E30ECD5F0DCD1F50E0B
:100510000001A76FFF0E0001A86FC30E0001A96FB5
:10052000FD0E0001AA6F9AEC86F02C0E30ECD5F08F
:10053000CAD1F50E0001A76FFF0E0001A86F6F0E64
:100540000001A96FFF0E0001AA6F9AEC86F02C0E35
:1005500030ECD5F0B8D1F50E0001A76FFF0E000109
:10056000A86F950E0001A96FFF0E0001AA6F9AEC0B
:1005700086F02C0E30ECD5F0A6D1F50E0001A76F59
:10058000FF0E0001A86F6D0E0001A96FFE0E0001A5
:10059000AA6F9AEC86F02C0E30ECD5F094D1F50EC3
:1005A0000001A76FFF0E0001A86F620E0001A96F86
:1005B000FE0E0001AA6F9AEC86F02C0E30ECD5F0FE
:1005C00082D1F50E0001A76FFF0E0001A86FA70EE4
:1005D0000001A96FFD0E0001AA6F9AEC86F02C0EA7
:1005E00030ECD5F070D1F50E0001A76FFF0E0001C1
:1005F000A86FA30E0001A96FFF0E0001AA6F9AEC6D
:1006000086F02C0E30ECD5F05ED1F50E0001A76F10
:10061000FF0E0001A86FB90E0001A96FFE0E0001C8
:10062000AA6F9AEC86F02C0E30ECD5F04CD1F50E7A
:100630000001A76FFF0E0001A86F130E0001A96F44
:10064000FF0E0001AA6F9AEC86F02C0E30ECD5F06C
:100650003AD1F50E0001A76FFF0E0001A86FC30E7F
:100660000001A96FFE0E0001AA6F9AEC86F02C0E15
:1006700030ECD5F028D1F50E0001A76FFF0E000178
:10068000A86F570E0001A96FFE0E0001AA6F9AEC29
:1006900086F02C0E30ECD5F016D1F50E0001A76FC8
:1006A000FF0E0001A86F990E0001A96FFE0E000158
:1006B000AA6F9AEC86F02C0E30ECD5F004D1F50E32
:1006C0000001A76FFF0E0001A86F310E0001A96F96
:1006D000FF0E0001AA6F9AEC86F02C0E30ECD5F0DC
:1006E000F2D0F50E0001A76FFF0E0001A86F8E0E6D
:1006F0000001A96FFF0E0001AA6F9AEC86F02C0E84
:1007000030ECD5F0E0D0F50E0001A76FFF0E000130
:10071000A86F350E0001A96FFE0E0001AA6F9AECBA
:1007200086F02C0E30ECD5F0CED0F50E0001A76F80
:10073000FF0E0001A86F990E0001A96FFD0E0001C8
:10074000AA6F9AEC86F02C0E30ECD5F0BCD0F50EEA
:100750000001A76FFF0E0001A86F830E0001A96FB3
:10076000FE0E0001AA6F9AEC86F02C0E30ECD5F04C
:10077000AAD0F50E0001A76FFF0E0001A86FD00EE2
:100780000001A96FFD0E0001AA6F9AEC86F02C0EF5
:1007900030ECD5F098D03A50000AD8B428D6010AE7
:1007A000D8B437D6030AD8B458D6010AD8B4C1D6BB
:1007B000070AD8B4ACD6010AD8B4B7D7030AD8B45C
:1007C0005ED6010AD8B469D70F0AD8B4C4D6010AD4
:1007D000D8B41BD7030AD8B4F4D6010AD8B403D7C7
:1007E000070AD8B470D6010AD8B45BD6030AD8B4C5
:1007F0001ED7010AD8B42DD71F0AD8B4D0D6010A03
:10080000D8B4BBD6030AD8B436D7010AD8B47BD73C
:10081000070AD8B466D7010AD8B451D7030AD8B4A6
:1008200096D7010AD8B461D60F0AD8B404D6010A03
:10083000D8B49FD748D0F50E0001A76FFF0E000176
:10084000A86F7F0E0001A96FFF0E0001AA6F9AEC3E
:1008500086F02C0E30ECD5F044D0F50E0001A76FD9
:10086000FF0E0001A86F9C0E0001A96FFF0E000192
:10087000AA6F9AEC86F02C0E30ECD5F032D0F50E43
:100880000001A76FFF0E0001A86F670E0001A96F9E
:10089000FF0E0001AA6F9AEC86F02C0E30ECD5F01A
:1008A00020D0F50E0001A76FFF0E0001A86F3A0ED1
:1008B0000001A96FFF0E0001AA6F9AEC86F02C0EC2
:1008C00030ECD5F00ED00001D851000AD8B4B3D71F
:1008D000010AD8B4C2D7030AD8B4D1D7010AD8B410
:1008E000E0D7F30E1F6E050E206E4EECCCF0F5C572
:1008F0006AF000016B6BD1ECC6F06AC092F26BC07B
:1009000093F2F4C56AF000016B6BD1ECC6F06AC0DB
:1009100094F26BC095F2F3C56AF000016B6BD1ECF9
:10092000C6F06AC098F26BC099F2F7C56AF0000190
:100930006B6BD1ECC6F06AC090F26BC091F2F8C557
:100940006AF000016B6BD1ECC6F06AC096F26BC026
:1009500097F2F9C56AF000016B6BD1ECC6F06AC082
:100960009AF26BC09BF2F6C56AF000016B6BD1EC9A
:10097000C6F06AC0C7F56BC0C8F5F20E0001A76FDC
:10098000FF0E0001A86F90C2A9F091C2AAF09AECE4
:1009900086F02D0E30ECD5F0F20E0001A76FFF0EA1
:1009A0000001A86F96C2A9F097C2AAF09AEC86F04F
:1009B0002D0E30ECD5F0F20E0001A76FFF0E0001F6
:1009C000A86F9AC2A9F09BC2AAF09AEC86F02C0EEE
:1009D00030ECD5F0F20E0001A76FFF0E0001A86FFA
:1009E00092C2A9F093C2AAF09AEC86F03A0E30ECCB
:1009F000D5F0F20E0001A76FFF0E0001A86F94C2A0
:100A0000A9F095C2AAF09AEC86F03A0E30ECD5F037
:100A1000F20E0001A76FFF0E0001A86F98C2A9F0A7
:100A200099C2AAF09AEC86F02C0E30ECD5F0BF0EED
:100A30000001A76FFF0E0001A86F27C2A9F028C20E
:100A4000AAF029C2ABF09AEC86F02C0E30ECD5F06F
:100A5000F20E0001A76FFF0E0001A86F6DC1A9F093
:100A60000001AA6B9AEC86F02E0E30ECD5F0F20E57
:100A70000001A76FFF0E0001A86F6EC1A9F0000171
:100A8000AA6B9AEC86F02E0E30ECD5F0F20E000137
:100A9000A76FFF0E0001A86F6FC1A9F00001AA6B3C
:100AA0009AEC86F02E0E30ECD5F0F20E0001A76F16
:100AB000FF0E0001A86F70C1A9F00001AA6B9AECAB
:100AC00086F02E0E30ECD5F0F20E0001A76FFF0E6F
:100AD0000001A86F71C1A9F00001AA6B9AEC86F021
:100AE0002C0E30ECD5F0F20E0001A76FFF0E0001C6
:100AF000A86F83CFA9F00001AA6B9AEC86F02C0EA8
:100B000030ECD5F0F20E0001A76FFF0E0001A86FC8
:100B1000D7C1A9F00001AA6B9AEC86F02C0E30EC3C
:100B2000D5F0F20E0001A76FFF0E0001A86F5BC1A8
:100B3000A9F05CC1AAF09AEC86F02C0E30ECD5F04E
:100B4000F20E0001A76FFF0E0001A86FB7C1A9F058
:100B50000001AA6B9AEC86F02C0E30ECD5F0F20E68
:100B60000001A76FFF0E0001A86FB8C1A9F0000136
:100B7000AA6B9AEC86F02C0E30ECD5F0F20E000148
:100B8000A76FFF0E0001A86F02C5A9F003C5AAF068
:100B90009AEC86F02C0E30ECD5F0F20E0001A76F27
:100BA000FF0E0001A86F0EC5A9F00FC5AAF09AECC0
:100BB00086F02C0E30ECD5F0F20E0001A76FFF0E80
:100BC0000001A86F35C0A9F00001AA6B9AEC86F06D
:100BD0002C0E30ECD5F0F20E0001A76FFF0E0001D5
:100BE000A86F12C5A9F013C5AAF09AEC86F02C0ED6
:100BF00030ECD5F0F20E0001A76FFF0E0001A86FD8
:100C000095C1A9F00001AA6B9AEC86F02C0E30EC8D
:100C1000D5F0F20E0001A76FFF0E0001A86FB0C162
:100C2000A9F00001AA6B9AEC86F02C0E30ECD5F0FE
:100C3000F20E0001A76FFF0E0001A86FC7C1A9F057
:100C40000001AA6B9AEC86F02C0E30ECD5F0F20E77
:100C50000001A76FFF0E0001A86F36C0A9F00001C8
:100C6000AA6B9AEC86F02C0E30ECD5F0F20E000157
:100C7000A76FFF0E0001A86F37C0A9F00001AA6B93
:100C80009AEC86F02E0E30ECD5F0F20E0001A76F34
:100C9000FF0E0001A86F38C0A9F00001AA6B9AEC02
:100CA00086F02E0E30ECD5F0F20E0001A76FFF0E8D
:100CB0000001A86F39C0A9F00001AA6B9AEC86F078
:100CC0002C0E30ECD5F0F20E0001A76FFF0E0001E4
:100CD000A86FD3C1A9F00001AA6B9AEC86F02C0E84
:100CE00030ECD5F0F20E0001A76FFF0E0001A86FE7
:100CF000E4C1A9F00001AA6B9AEC86F02C0E30EC4E
:100D0000D5F0F20E0001A76FFF0E0001A86FE5C13C
:100D1000A9F00001AA6B9AEC86F0FD0E1D6EFF0E85
:100D20001E6E66ECD3F0FB0E1D6EFF0E1E6E66ECA3
:100D3000D3F01200A90E0001B76F000E0001B86FCA
:100D4000F9EF8CF0250E0001CE19D8B406D00001C1
:100D5000CE5136ECD5F0F9EF8CF0000E0001C86FE3
:100D6000000EC76F000E0001BC6F000EBB6FA7C066
:100D7000F6FFA8C0F7FF000EF86E0800F550C6ECAD
:100D8000D4F0D8A044D0000E0001C86F000EC76F89
:100D9000C7C064F0C8C065F0000E0001676F0A0E9E
:100DA000666F4BECD3F064C0C7F065C0C8F0D00EDE
:100DB0000001AC6FFF0E0001AD6FA7C0F6FFA8C029
:100DC000F7FF000EF86E0800F5500001AE6FAF6B34
:100DD0000001AC510001AE270001AD510001AF236D
:100DE0000001AE510001C7270001AF510001C82327
:100DF0000001A74BA82BA7C0F6FFA8C0F7FF000E65
:100E0000F86E0800F550C6ECD4F0D8B0C1D7A7C032
:100E1000F6FFA8C0F7FF000EF86E0800F5502E0A86
:100E2000D8A43DD00001BC8D0001A74BA82B000E1B
:100E30000001CD6F000ECC6F25D0CCC064F0CDC0CA
:100E400065F0000E0001676F0A0E666F4BECD3F081
:100E5000A7C0F6FFA8C0F7FF000EF86E0800F55017
:100E600000016427000E00016523D00E00016425F7
:100E70000001CC6FFF0E000165210001CD6F000164
:100E8000A74BA82BA7C0F6FFA8C0F7FF000EF86E6F
:100E90000800F550C6ECD4F0D8A0B0D0CED7000EE4
:100EA0000001CD6F000ECC6F0001BC89A7D00001FE
:100EB000BC85C6D0B7C0D9FFB8C0DAFFDECFB5F069
:100EC000DDCFB6F0020E0001B727000EB8230001F7
:100ED000B5510001B611D8A406D0870E0001B56F38
:100EE000FF0E0001B66F000E0001BA6F000EB96F61
:100EF00003D00001B94BBA2B0001B9510001B5254F
:100F00000001AC6F0001BA510001B6210001AD6FC4
:100F1000ACC0F6FFADC0F7FF000EF86E0F0EF76421
:100F200003D00800F55005D0F6CFD9FFF7CFDAFF90
:100F3000DF500009D8A4DDD70001CC510001CD114C
:100F4000D8B40ED00001B9510001CC5D0001BA51F6
:100F50000001CD59D8B004D0CCC0B9F0CDC0BAF0A2
:100F60000001C7510001B95D0001C8510001BA5923
:100F7000D8B009D00001B9510001C75F0001BA51D2
:100F80000001C85B09D0000E0001C86F000EC76FDA
:100F900003D0200E36ECD5F00001C707D8A0C80753
:100FA0000001C729F6E10001C829D8B417D0F1D74C
:100FB000B5C0F6FFB6C0F7FF000EF86E0F0EF7646F
:100FC00003D00800F55005D0F6CFD9FFF7CFDAFFF0
:100FD000DF5036ECD5F00001B54BB62B0001B90758
:100FE000D8A0BA070001B929E3E10001BA29D8B4B1
:100FF000F9EF8CF0DDD70001BB8D22D0A7C0F6FF42
:10100000A8C0F7FF0001A74BA82B000EF86E080040
:10101000F5CFCEF00001CE51000AD8B41200640A18
:10102000D8B40ED0020AD8B442D70F0AD8B408D028
:101030001A0AD8B43FD7060AD8B4DDD7F9EF8CF036
:10104000070E0001BC15D8B45CD30001BCA905D0C3
:10105000000E0001CD6F060ECC6FB7C0D9FFB8C02F
:10106000DAFFDECFC9F0DECFCAF0DDCFCBF0030E62
:101070000001B727000EB8230001CBAF11D0C9C0C3
:1010800079F0CAC07AF0CBC07BF0E0ECD3F079C045
:10109000C9F07AC0CAF07BC0CBF0030E0001BB13CD
:1010A000000E0001C66F000EC56F0001C95100019E
:1010B000CA110001CB11D8B49AD0820E0001AC6FD6
:1010C000FF0E0001AD6FC9C0AEF0CAC0AFF0CBC01B
:1010D000B0F0CCC0B1F0100E06D00001D890B13302
:1010E000B033AF33AE33E82EF8D70001AE51000174
:1010F000AC250001C56F000E0001AD210001C66FD7
:101100000001C507D8A0C607C5C064F0C6C065F019
:10111000000E0001676F030E666F4BECD3F064C0E6
:10112000C5F065C0C6F0C5C023F0C6C024F0000EEF
:10113000266E0A0E256E96ECCDF023C0C5F024C0B5
:10114000C6F00001C6AF04D00001C507D8A0C6078D
:101150000001C551000823EC9FF079C0BDF07AC0B2
:10116000BEF07BC0BFF0BDC06AF0BEC06BF0BFC0B8
:101170006CF0C9C06DF0CAC06EF0CBC06FF083ECEC
:10118000BDF06AC0BDF06BC0BEF06CC0BFF0BDC0AA
:101190008FF0BEC090F0BFC091F0000E0001926FC2
:1011A000800E0001936F3F0E0001946F09ECC8F0B0
:1011B0000001D8B005D00001C507D8A0C60717D0D8
:1011C000BDC08FF0BEC090F0BFC091F0000E000116
:1011D000926F200E0001936F410E0001946F09EC95
:1011E000C8F00001D8A003D00001C54BC62B0001F8
:1011F000CDBF08D00001CD511DE10D0E0001CC5D29
:10120000D8B018D0C9C083F0CAC084F0CBC085F074
:101210000001CC510AECACF079C086F07AC087F0BE
:101220007BC088F0E4ECAFF083C0C9F084C0CAF0A2
:1012300085C0CBF00001C6BF08D00001C6512AE12D
:101240000A0E0001C55DD8B025D00001C9510001CA
:10125000CA110001CB11D8B463D0C9C080F0CAC094
:1012600081F0CBC082F0D3ECC0F0000180510001CE
:1012700081110001821100018311D8A451D0000115
:10128000C6BF4ED00001C65105E1020E0001C55D8A
:10129000D8A046D0BDC08FF0BEC090F0BFC091F0C6
:1012A000700E0001926F890E0001936F400E0001D5
:1012B000946F09ECC8F00001D8B003D00001F70E1C
:1012C00002D00001F80EC527FF0EC6230001C5514C
:1012D00023EC9FF079C0BDF07AC0BEF07BC0BFF0B8
:1012E000C9C01DF0CAC01EF0CBC01FF0BDC020F0A9
:1012F000BEC021F0BFC022F032ECBEF01DC0C1F074
:101300001EC0C2F01FC0C3F020C0C4F0000E000118
:10131000C96F000E0001CA6F000E0001CB6F33D001
:10132000C9C080F0CAC081F0CBC082F0D3ECC0F05D
:1013300080C0C1F081C0C2F082C0C3F083C0C4F0DD
:10134000C9C0A1F0CAC0A2F0CBC0A3F0C1C060F078
:10135000C2C061F0C3C062F0C4C063F0F6ECCFF06D
:1013600060C0A4F061C0A5F062C0A6F0A9ECD2F004
:10137000A1C0C9F0A2C0CAF0A3C0CBF0000E00010A
:10138000C66F000EC56F010E0001CE6F0A0E000180
:10139000CE19D8B421D00001CE51040D790EF3241A
:1013A000F66EFB0EF420F76EF86A000EF8220900C4
:1013B000F5500001C15D0900F5500001C259090056
:1013C000F5500001C3590900F5500001C459D8A0D7
:1013D00003D00001CE2BDAD7CEC0ACF00001AD6B4C
:1013E000ACBFAD070001CC510001AC270001CD51CD
:1013F0000001AD230001C5510001AC270001C65119
:101400000001AD230001AC510001C75F0001AD51E7
:101410000001C85B0001CC510001CD11D8B404D04B
:101420000001C707D8A0C807030E0001BB150001C3
:10143000AC6F000E0001BC150001AD6F0001AC5196
:101440000001AD11D8B408D003D0200E36ECD5F091
:101450000001C707D8A0C8070001C8BF07D0000116
:10146000C851F3E10001C705D8B0EFD7030E000162
:10147000BB150001AC6F000E0001BC150001AD6F83
:101480000001AC510001AD11D8B44ED02D0E36EC98
:10149000D5F04AD0C1C01DF0C2C01EF0C3C01FF0BD
:1014A000C4C020F00001CE51040D790EF324F66E75
:1014B000FB0EF420F76EF86A000EF8220900F5CF53
:1014C00021F00900F5CF22F00900F5CF23F00A0042
:1014D000F5CF24F076ECCEF01DC0BDF01EC0BEF0FE
:1014E0001FC0BFF020C0C0F0BDC065F0BEC066F038
:1014F000BFC067F0C0C068F00A0E0001696F000E3F
:101500006A6F000E6B6F000E6C6FE4ECCDF065C07F
:10151000BDF066C0BEF067C0BFF068C0C0F000019B
:10152000BD51300F36ECD5F00001CE070001CE29B9
:10153000D8B408D0AFD7300E36ECD5F00001C507CF
:10154000D8A0C6070001C6BF07D00001C651F3E10D
:101550000001C505D8B0EFD70001CDBF0CD0000108
:10156000CD5105E1090E0001CC5DD8A004D0080ED4
:101570000001CE6F02D0CCC0CEF00001CE510001F0
:10158000CC5F000E0001CEBFFF0E0001CD5B00015D
:10159000CE510001D8B403D02E0E36ECD5F00001A8
:1015A000CE5123EC9FF079C0B2F07AC0B3F07BC08B
:1015B000B4F0C9C06DF0CAC06EF0CBC06FF0B2C05D
:1015C0006AF0B3C06BF0B4C06CF083ECBDF06AC0DD
:1015D00080F06BC081F06CC082F0D3ECC0F080C0B2
:1015E000C1F081C0C2F082C0C3F083C0C4F074D027
:1015F000C1C01DF0C2C01EF0C3C01FF0C4C020F0A7
:101600000001CE51040D790EF324F66EFB0EF4208A
:10161000F76EF86A000EF8220900F5CF21F00900F4
:10162000F5CF22F00900F5CF23F00A00F5CF24F022
:1016300076ECCEF01DC0BDF01EC0BEF01FC0BFF0E6
:1016400020C0C0F0BDC065F0BEC066F0BFC067F08E
:10165000C0C068F00A0E0001696F000E6A6F000ECC
:101660006B6F000E6C6FE4ECCDF065C0BDF066C032
:10167000BEF067C0BFF068C0C0F00001BD51300FC0
:1016800036ECD5F0C1C065F0C2C066F0C3C067F0EB
:10169000C4C068F00001CE51040D790EF324F66E3B
:1016A000FB0EF420F76EF86A000EF8220900F5CF61
:1016B00069F00900F5CF6AF00900F5CF6BF00A0078
:1016C000F5CF6CF0E4ECCDF065C0C1F066C0C2F0BF
:1016D00067C0C3F068C0C4F00001CE070001CE2986
:1016E000D8B408D085D7300E36ECD5F00001CC0741
:1016F000D8A0CD070001CC510001CD11D8B479D1CB
:10170000F2D70001BBBD23D0B7C0D9FFB8C0DAFF04
:10171000DECFC1F0DDCFC2F00001000EC2BFFF0E70
:10172000C36FC46F020E0001B727000EB82300017B
:10173000C4AF21D0030E0001BB130001C41FC31F9F
:10174000C21FC16D000EC223C323C42314D0B7C06F
:10175000D9FFB8C0DAFFDECFACF0DDCFADF0ACC062
:10176000C1F0ADC0C2F00001C36BC46B020E00013A
:10177000B727000EB8230001CC510001CD11D8A429
:101780000DD00001C1510001C2110001C3110001BF
:10179000C411D8A403D00001CC4BCD2B010E000105
:1017A000CE6F0A0E0001CE19D8B421D00001CE515F
:1017B000040D790EF324F66EFB0EF420F76EF86A32
:1017C000000EF8220900F5500001C15D0900F55036
:1017D0000001C2590900F5500001C3590900F55034
:1017E0000001C459D8A003D00001CE2BDAD7800E57
:1017F0000001CEBF7F0E0001AC6F0001CC51000193
:10180000CE5D0001CD51800A0001AC59D8B003D0A3
:10181000CCC0CEF018D00001CD51800A0001AC6FD1
:101820000001CE510001CC5D800E0001CEBF7F0EC5
:101830000001AC59D8B007D00001CE510001CC6FE7
:10184000CD6BCCBFCD070001C7510001C811D8B482
:1018500014D0030E0001BB150001AC6F000E000197
:10186000BC150001AD6F0001AC510001AD11D8B441
:1018700004D00001C707D8A0C8070001BCAD1ED026
:101880000001C7510001CC5D0001CD51800A00016B
:10189000AC6F0001C851800A0001AC59D8B009D022
:1018A0000001CC510001C75F0001CD510001C85BB0
:1018B00005D0000E0001C86F000EC76F800E00013A
:1018C000CEBF7F0E0001AC6F0001C7510001CE5D9D
:1018D0000001C851800A0001AC59D8B00BD00001FA
:1018E000CE510001C75F000E0001CEBFFF0E000108
:1018F000C85B05D0000E0001C86F000EC76F000165
:10190000C7510001C811D8B40DD0200E36ECD5F067
:101910000001C707D8A0C8070001C7510001C811BE
:10192000D8A4F3D7030E0001BB150001AC6F000E65
:101930000001BC150001AD6F0001AC510001AD11FB
:10194000D8B44CD02D0E36ECD5F048D0CCC0ACF08D
:10195000CDC0ADF00001D890AC37AD370001D890C4
:10196000AC37AD37790E0001AC25F66EFB0EAD211C
:10197000F76EF86A000EF8220900F5CF21F0090091
:10198000F5CF22F00900F5CF23F00A00F5CF24F0BF
:10199000C1C01DF0C2C01EF0C3C01FF0C4C020F003
:1019A00076ECCEF01DC065F01EC066F01FC067F07B
:1019B00020C068F00A0E0001696F000E6A6F000E09
:1019C0006B6F000E6C6FE4ECCDF000016551300FD1
:1019D0000001CE6F0001CE5136ECD5F00001CC07EE
:1019E000D8A0CD070001CC29B1E10001CD29D8A4B0
:1019F000ADD7A7C0F6FFA8C0F7FF0001A74BA82BE3
:101A0000000EF86E0800F5CFCEF00001CE51D8B42C
:101A10001200A2EF86F0EDC386F0EEC387F0EFC3AD
:101A200088F0F0C383F0F1C384F0F2C385F0E4ECF6
:101A3000AFF083C0B1F684C0B2F685C0B3F6EAC396
:101A400086F0EBC387F0ECC388F0B1C683F0B2C672
:101A500084F0B3C685F0E4ECAFF083C0B4F684C084
:101A6000B5F685C0B6F6E7C386F0E8C387F0E9C3EC
:101A700088F0B4C683F0B5C684F0B6C685F0E4EC51
:101A8000AFF083C0B7F684C0B8F685C0B9F6E4C33A
:101A900086F0E5C387F0E6C388F0B7C683F0B8C622
:101AA00084F0B9C685F0E4ECAFF083C09BF084C04D
:101AB0009CF085C09DF0000E00019E6FA00E0001FD
:101AC0009F6F400E0001A06F89ECBFF09BC06FF2CA
:101AD0009CC070F29DC071F2AEC3B1F3AFC3B2F35C
:101AE000B0C3B3F3ABC3AEF3ACC3AFF3ADC3B0F3AA
:101AF000A8C3ABF3A9C3ACF3AAC3ADF3A5C3A8F3C2
:101B0000A6C3A9F3A7C3AAF3A2C3A5F3A3C3A6F3CD
:101B1000A4C3A7F39FC3A2F3A0C3A3F3A1C3A4F3D9
:101B20009CC39FF39DC3A0F39EC3A1F399C39CF3F1
:101B30009AC39DF39BC39EF396C399F397C39AF3FD
:101B400098C39BF393C396F394C397F395C398F309
:101B500090C393F391C394F392C395F38DC390F321
:101B60008EC391F38FC392F38AC38DF38BC38EF32D
:101B70008CC38FF387C38AF388C38BF389C38CF339
:101B800084C387F385C388F386C389F381C384F351
:101B900082C385F383C386F37EC381F37FC382F35D
:101BA00080C383F37BC37EF37CC37FF37DC380F369
:101BB00078C37BF379C37CF37AC37DF375C378F381
:101BC00076C379F377C37AF372C375F373C376F38D
:101BD00074C377F36FC372F370C373F371C374F399
:101BE0006CC36FF36DC370F36EC371F369C36CF3B1
:101BF0006AC36DF36BC36EF366C369F367C36AF3BD
:101C000068C36BF363C366F364C367F365C368F3C8
:101C100060C363F361C364F362C365F35DC360F3E0
:101C20005EC361F35FC362F35AC35DF35BC35EF3EC
:101C30005CC35FF3CD0E00016D6F4C0E00016E6F43
:101C40003F0E00016F6F30C16AF031C16BF032C1DD
:101C50006CF083ECBDF06AC08FF06BC090F06CC08C
:101C600091F06FC292F070C293F071C294F009ECDF
:101C7000C8F00001D8B028D06FC28FF070C290F0C9
:101C800071C291F09A0E00016D6F990E00016E6F96
:101C90003F0E00016F6F30C16AF031C16BF032C18D
:101CA0006CF083ECBDF06AC092F06BC093F06CC036
:101CB00094F009ECC8F00001D8B006D030C15AF356
:101CC00031C15BF332C15CF3AEC386F0AFC387F0C2
:101CD000B0C388F0B1C383F0B2C384F0B3C385F05E
:101CE000E4ECAFF083C0B1F684C0B2F685C0B3F6C1
:101CF000ABC386F0ACC387F0ADC388F0B1C683F048
:101D0000B2C684F0B3C685F0E4ECAFF083C0B4F69D
:101D100084C0B5F685C0B6F6A8C386F0A9C387F01F
:101D2000AAC388F0B4C683F0B5C684F0B6C685F001
:101D3000E4ECAFF083C0B7F684C0B8F685C0B9F65E
:101D4000A5C386F0A6C387F0A7C388F0B7C683F003
:101D5000B8C684F0B9C685F0E4ECAFF083C066F68F
:101D600084C067F685C068F6A2C386F0A3C387F077
:101D7000A4C388F066C683F067C684F068C685F0A1
:101D8000E4ECAFF083C069F684C06AF685C06BF6F8
:101D90009FC386F0A0C387F0A1C388F069C683F013
:101DA0006AC684F06BC685F0E4ECAFF083C06CF6D5
:101DB00084C06DF685C06EF69CC386F09DC387F027
:101DC0009EC388F06CC683F06DC684F06EC685F045
:101DD000E4ECAFF083C06FF684C070F685C071F696
:101DE00099C386F09AC387F09BC388F06FC683F0CF
:101DF00070C684F071C685F0E4ECAFF083C072F673
:101E000084C073F685C074F696C386F097C387F0D6
:101E100098C388F072C683F073C684F074C685F0E8
:101E2000E4ECAFF083C075F684C076F685C077F633
:101E300093C386F094C387F095C388F075C683F08A
:101E400076C684F077C685F0E4ECAFF083C078F610
:101E500084C079F685C07AF690C386F091C387F086
:101E600092C388F078C683F079C684F07AC685F08C
:101E7000E4ECAFF083C07BF684C07CF685C07DF6D1
:101E80008DC386F08EC387F08FC388F07BC683F046
:101E90007CC684F07DC685F0E4ECAFF083C07EF6AE
:101EA00084C07FF685C080F68AC386F08BC387F036
:101EB0008CC388F07EC683F07FC684F080C685F030
:101EC000E4ECAFF083C081F684C082F685C083F66F
:101ED00087C386F088C387F089C388F081C683F002
:101EE00082C684F083C685F0E4ECAFF083C084F64C
:101EF00084C085F685C086F684C386F085C387F0E6
:101F000086C388F084C683F085C684F086C685F0D3
:101F1000E4ECAFF083C087F684C088F685C089F60C
:101F200081C386F082C387F083C388F087C683F0BD
:101F300088C684F089C685F0E4ECAFF083C08AF6E9
:101F400084C08BF685C08CF67EC386F07FC387F095
:101F500080C388F08AC683F08BC684F08CC685F077
:101F6000E4ECAFF083C08DF684C08EF685C08FF6AA
:101F70007BC386F07CC387F07DC388F08DC683F079
:101F80008EC684F08FC685F0E4ECAFF083C090F687
:101F900084C091F685C092F678C386F079C387F045
:101FA0007AC388F090C683F091C684F092C685F01B
:101FB000E4ECAFF083C093F684C094F685C095F648
:101FC00075C386F076C387F077C388F093C683F035
:101FD00094C684F095C685F0E4ECAFF083C096F625
:101FE00084C097F685C098F672C386F073C387F0F5
:101FF00074C388F096C683F097C684F098C685F0BF
:10200000E4ECAFF083C099F684C09AF685C09BF6E5
:102010006FC386F070C387F071C388F099C683F0F0
:102020009AC684F09BC685F0E4ECAFF083C09CF6C2
:1020300084C09DF685C09EF66CC386F06DC387F0A4
:102040006EC388F09CC683F09DC684F09EC685F062
:10205000E4ECAFF083C09FF684C0A0F685C0A1F683
:1020600069C386F06AC387F06BC388F09FC683F0AC
:10207000A0C684F0A1C685F0E4ECAFF083C0A2F660
:1020800084C0A3F685C0A4F666C386F067C387F054
:1020900068C388F0A2C683F0A3C684F0A4C685F006
:1020A000E4ECAFF083C0A5F684C0A6F685C0A7F621
:1020B00063C386F064C387F065C388F0A5C683F068
:1020C000A6C684F0A7C685F0E4ECAFF083C0A8F6FE
:1020D00084C0A9F685C0AAF660C386F061C387F004
:1020E00062C388F0A8C683F0A9C684F0AAC685F0AA
:1020F000E4ECAFF083C0ABF684C0ACF685C0ADF6BF
:102100005DC386F05EC387F05FC388F0ABC683F023
:10211000ACC684F0ADC685F0E4ECAFF083C0AEF69B
:1021200084C0AFF685C0B0F6AEC683F0AFC684F00B
:10213000B0C685F05AC386F05BC387F05CC388F0F5
:10214000E4ECAFF083C0EEF284C0EFF285C0F0F2B1
:10215000EEC29BF0EFC29CF0F0C29DF0000E0001B9
:102160009E6FF00E00019F6F410E0001A06F89EC81
:10217000BFF09BC0EEF29CC0EFF29DC0F0F2090EE2
:1021800000016D6FC90E00016E6F400E00016F6F90
:10219000EEC26AF0EFC26BF0F0C26CF083ECBDF0FF
:1021A0006AC083F06BC084F06CC085F00B0E000138
:1021B000866F060E0001876FBF0E0001886FE4EC8A
:1021C000AFF083C0C6F484C0C7F485C0C8F4C6C4E9
:1021D000B7F0C7C4B8F0C8C4B9F0CEECC8F0B7C007
:1021E00075F2B8C076F2B9C077F21200DEC386F09D
:1021F000DFC387F0E0C388F0E1C383F0E2C384F07B
:10220000E3C385F0E4ECAFF083C0B1F684C0B2F66E
:1022100085C0B3F6DBC386F0DCC387F0DDC388F08E
:10222000B1C683F0B2C684F0B3C685F0E4ECAFF07B
:1022300083C0B4F684C0B5F685C0B6F6D8C386F0C0
:10224000D9C387F0DAC388F0B4C683F0B5C684F08A
:10225000B6C685F0E4ECAFF083C0B7F684C0B8F63C
:1022600085C0B9F6D5C386F0D6C387F0D7C388F04A
:10227000B7C683F0B8C684F0B9C685F0E4ECAFF019
:1022800083C09BF084C09CF085C09DF0000E0001CF
:102290009E6FA00E00019F6F400E0001A06F89ECA1
:1022A000BFF09BC01EF29CC01FF29DC020F254C321
:1022B00057F355C358F356C359F351C354F352C39C
:1022C00055F353C356F34EC351F34FC352F350C3A8
:1022D00053F34BC34EF34CC34FF34DC350F348C3BA
:1022E0004BF349C34CF34AC34DF345C348F346C3CC
:1022F00049F347C34AF342C345F343C346F344C3D8
:1023000047F33FC342F340C343F341C344F33CC3E9
:102310003FF33DC340F33EC341F339C33CF33AC3FB
:102320003DF33BC33EF336C339F337C33AF338C307
:102330003BF333C336F334C337F335C338F330C319
:1023400033F331C334F332C335F32DC330F32EC32B
:1023500031F32FC332F32AC32DF32BC32EF32CC337
:102360002FF327C32AF328C32BF329C32CF324C349
:1023700027F325C328F326C329F321C324F322C35B
:1023800025F323C326F31EC321F31FC322F320C367
:1023900023F31BC31EF31CC31FF31DC320F318C379
:1023A0001BF319C31CF31AC31DF315C318F316C38B
:1023B00019F317C31AF312C315F313C316F314C397
:1023C00017F30FC312F310C313F311C314F30CC3A9
:1023D0000FF30DC310F30EC311F309C30CF30AC3BB
:1023E0000DF30BC30EF306C309F307C30AF308C3C7
:1023F0000BF303C306F304C307F305C308F300C3D9
:1024000003F301C304F302C305F3CD0E00016D6FA6
:102410004C0E00016E6F3F0E00016F6F1BC16AF022
:102420001CC16BF01DC16CF083ECBDF06AC08FF075
:102430006BC090F06CC091F01EC292F01FC293F07E
:1024400020C294F009ECC8F00001D8B028D01EC218
:102450008FF01FC290F020C291F09A0E00016D6FB4
:10246000990E00016E6F3F0E00016F6F1BC16AF085
:102470001CC16BF01DC16CF083ECBDF06AC092F022
:102480006BC093F06CC094F009ECC8F00001D8B0B8
:1024900006D01BC100F31CC101F31DC102F354C3DC
:1024A00086F055C387F056C388F057C383F058C3EE
:1024B00084F059C385F0E4ECAFF083C0B1F684C07A
:1024C000B2F685C0B3F651C386F052C387F053C34A
:1024D00088F0B1C683F0B2C684F0B3C685F0E4ECF0
:1024E000AFF083C0B4F684C0B5F685C0B6F64EC36F
:1024F00086F04FC387F050C388F0B4C683F0B5C6EA
:1025000084F0B6C685F0E4ECAFF083C0B7F684C0C3
:10251000B8F685C0B9F64BC386F04CC387F04DC3FF
:1025200088F0B7C683F0B8C684F0B9C685F0E4EC8D
:10253000AFF083C066F684C067F685C068F648C30E
:1025400086F049C387F04AC388F066C683F067C641
:1025500084F068C685F0E4ECAFF083C069F684C00F
:102560006AF685C06BF645C386F046C387F047C35D
:1025700088F069C683F06AC684F06BC685F0E4EC27
:10258000AFF083C06CF684C06DF685C06EF642C3B2
:1025900086F043C387F044C388F06CC683F06DC6F1
:1025A00084F06EC685F0E4ECAFF083C06FF684C0B3
:1025B00070F685C071F63FC386F040C387F041C313
:1025C00088F06FC683F070C684F071C685F0E4ECC5
:1025D000AFF083C072F684C073F685C074F63CC356
:1025E00086F03DC387F03EC388F072C683F073C6A1
:1025F00084F074C685F0E4ECAFF083C075F684C057
:1026000076F685C077F639C386F03AC387F03BC3C8
:1026100088F075C683F076C684F077C685F0E4EC62
:10262000AFF083C078F684C079F685C07AF636C3F9
:1026300086F037C387F038C388F078C683F079C650
:1026400084F07AC685F0E4ECAFF083C07BF684C0FA
:102650007CF685C07DF633C386F034C387F035C37E
:1026600088F07BC683F07CC684F07DC685F0E4EC00
:10267000AFF083C07EF684C07FF685C080F630C39D
:1026800086F031C387F032C388F07EC683F07FC600
:1026900084F080C685F0E4ECAFF083C081F684C09E
:1026A00082F685C083F62DC386F02EC387F02FC334
:1026B00088F081C683F082C684F083C685F0E4EC9E
:1026C000AFF083C084F684C085F685C086F62AC341
:1026D00086F02BC387F02CC388F084C683F085C6B0
:1026E00084F086C685F0E4ECAFF083C087F684C042
:1026F00088F685C089F627C386F028C387F029C3EA
:1027000088F087C683F088C684F089C685F0E4EC3B
:10271000AFF083C08AF684C08BF685C08CF624C3E4
:1027200086F025C387F026C388F08AC683F08BC65F
:1027300084F08CC685F0E4ECAFF083C08DF684C0E5
:102740008EF685C08FF621C386F022C387F023C39F
:1027500088F08DC683F08EC684F08FC685F0E4ECD9
:10276000AFF083C090F684C091F685C092F61EC388
:1027700086F01FC387F020C388F090C683F091C60F
:1027800084F092C685F0E4ECAFF083C093F684C089
:1027900094F685C095F61BC386F01CC387F01DC355
:1027A00088F093C683F094C684F095C685F0E4EC77
:1027B000AFF083C096F684C097F685C098F618C32C
:1027C00086F019C387F01AC388F096C683F097C6BF
:1027D00084F098C685F0E4ECAFF083C099F684C02D
:1027E0009AF685C09BF615C386F016C387F017C30B
:1027F00088F099C683F09AC684F09BC685F0E4EC15
:10280000AFF083C09CF684C09DF685C09EF612C3CF
:1028100086F013C387F014C388F09CC683F09DC66E
:1028200084F09EC685F0E4ECAFF083C09FF684C0D0
:10283000A0F685C0A1F60FC386F010C387F011C3C0
:1028400088F09FC683F0A0C684F0A1C685F0E4ECB2
:10285000AFF083C0A2F684C0A3F685C0A4F60CC373
:1028600086F00DC387F00EC388F0A2C683F0A3C61E
:1028700084F0A4C685F0E4ECAFF083C0A5F684C074
:10288000A6F685C0A7F609C386F00AC387F00BC376
:1028900088F0A5C683F0A6C684F0A7C685F0E4EC50
:1028A000AFF083C0A8F684C0A9F685C0AAF606C317
:1028B00086F007C387F008C388F0A8C683F0A9C6CE
:1028C00084F0AAC685F0E4ECAFF083C0ABF684C018
:1028D000ACF685C0ADF603C386F004C387F005C32C
:1028E00088F0ABC683F0ACC684F0ADC685F0E4ECEE
:1028F000AFF083C0AEF684C0AFF685C0B0F6AEC60A
:1029000083F0AFC684F0B0C685F000C386F001C383
:1029100087F002C388F0E4ECAFF083C0EBF284C030
:10292000ECF285C0EDF2EBC29BF0ECC29CF0EDC284
:102930009DF0000E00019E6FF00E00019F6F410E92
:102940000001A06F89ECBFF09BC0EBF29CC0ECF2E1
:102950009DC0EDF2090E00016D6FC90E00016E6F92
:10296000400E00016F6FEBC26AF0ECC26BF0EDC27B
:102970006CF083ECBDF06AC083F06BC084F06CC077
:1029800085F00B0E0001866F060E0001876FBF0EEB
:102990000001886FE4ECAFF083C0A2F484C0A3F41C
:1029A00085C0A4F4A2C4B7F0A3C4B8F0A4C4B9F01D
:1029B000CEECC8F0B7C09FF4B8C0A0F4B9C0A1F481
:1029C0001200CFC386F0D0C387F0D1C388F0D2C342
:1029D00083F0D3C384F0D4C385F0E4ECAFF083C0BC
:1029E000B1F684C0B2F685C0B3F6CCC386F0CDC3D1
:1029F00087F0CEC388F0B1C683F0B2C684F0B3C608
:102A000085F0E4ECAFF083C0B4F684C0B5F685C0C1
:102A1000B6F6C9C386F0CAC387F0CBC388F0B4C684
:102A200083F0B5C684F0B6C685F0E4ECAFF083C0A1
:102A3000B7F684C0B8F685C0B9F6C6C386F0C7C37A
:102A400087F0C8C388F0B7C683F0B8C684F0B9C6AB
:102A500085F0E4ECAFF083C09BF084C09CF085C0AF
:102A60009DF0000E00019E6FA00E00019F6F400EB2
:102A70000001A06F89ECBFF09BC003F29CC004F280
:102A80009DC005F254C457F455C458F456C459F4C3
:102A900051C454F452C455F453C456F44EC451F4C2
:102AA0004FC452F450C453F44BC44EF44CC44FF4CE
:102AB0004DC450F448C44BF449C44CF44AC44DF4DA
:102AC00045C448F446C449F447C44AF442C445F4F2
:102AD00043C446F444C447F43FC442F440C443F4FE
:102AE00041C444F43CC43FF43DC440F43EC441F40A
:102AF00039C43CF43AC43DF43BC43EF436C439F422
:102B000037C43AF438C43BF433C436F434C437F42D
:102B100035C438F430C433F431C434F432C435F439
:102B20002DC430F42EC431F42FC432F42AC42DF451
:102B30002BC42EF42CC42FF427C42AF428C42BF45D
:102B400029C42CF424C427F425C428F426C429F469
:102B500021C424F422C425F423C426F41EC421F481
:102B60001FC422F420C423F41BC41EF41CC41FF48D
:102B70001DC420F418C41BF419C41CF41AC41DF499
:102B800015C418F416C419F417C41AF412C415F4B1
:102B900013C416F414C417F40FC412F410C413F4BD
:102BA00011C414F40CC40FF40DC410F40EC411F4C9
:102BB00009C40CF40AC40DF40BC40EF406C409F4E1
:102BC00007C40AF408C40BF403C406F404C407F4ED
:102BD00005C408F400C403F401C404F402C405F4F9
:102BE000CD0E00016D6F4C0E00016E6F3F0E0001A7
:102BF0006F6F06C16AF007C16BF008C16CF083EC1F
:102C0000BDF06AC08FF06BC090F06CC091F003C251
:102C100092F004C293F005C294F009ECC8F00001F0
:102C2000D8B028D003C28FF004C290F005C291F052
:102C30009A0E00016D6F990E00016E6F3F0E00013C
:102C40006F6F06C16AF007C16BF008C16CF083ECCE
:102C5000BDF06AC092F06BC093F06CC094F009ECC8
:102C6000C8F00001D8B006D006C100F407C101F4D5
:102C700008C102F454C486F055C487F056C488F0E5
:102C800057C483F058C484F059C485F0E4ECAFF025
:102C900083C0B1F684C0B2F685C0B3F651C486F0E5
:102CA00052C487F053C488F0B1C683F0B2C684F032
:102CB000B3C685F0E4ECAFF083C0B4F684C0B5F6DB
:102CC00085C0B6F64EC486F04FC487F050C488F075
:102CD000B4C683F0B5C684F0B6C685F0E4ECAFF0B8
:102CE00083C0B7F684C0B8F685C0B9F64BC486F089
:102CF0004CC487F04DC488F0B7C683F0B8C684F0E2
:102D0000B9C685F0E4ECAFF083C066F684C067F620
:102D100085C068F648C486F049C487F04AC488F084
:102D200066C683F067C684F068C685F0E4ECAFF051
:102D300083C069F684C06AF685C06BF645C486F028
:102D400046C487F047C488F069C683F06AC684F039
:102D50006BC685F0E4ECAFF083C06CF684C06DF612
:102D600085C06EF642C486F043C487F044C488F040
:102D70006CC683F06DC684F06EC685F0E4ECAFF0EF
:102D800083C06FF684C070F685C071F63FC486F0CC
:102D900040C487F041C488F06FC683F070C684F0E9
:102DA00071C685F0E4ECAFF083C072F684C073F6B0
:102DB00085C074F63CC486F03DC487F03EC488F0FC
:102DC00072C683F073C684F074C685F0E4ECAFF08D
:102DD00083C075F684C076F685C077F639C486F070
:102DE0003AC487F03BC488F075C683F076C684F099
:102DF00077C685F0E4ECAFF083C078F684C079F64E
:102E000085C07AF636C486F037C487F038C488F0B7
:102E100078C683F079C684F07AC685F0E4ECAFF02A
:102E200083C07BF684C07CF685C07DF633C486F013
:102E300034C487F035C488F07BC683F07CC684F048
:102E40007DC685F0E4ECAFF083C07EF684C07FF6EB
:102E500085C080F630C486F031C487F032C488F073
:102E60007EC683F07FC684F080C685F0E4ECAFF0C8
:102E700083C081F684C082F685C083F62DC486F0B7
:102E80002EC487F02FC488F081C683F082C684F0F8
:102E900083C685F0E4ECAFF083C084F684C085F689
:102EA00085C086F62AC486F02BC487F02CC488F02F
:102EB00084C683F085C684F086C685F0E4ECAFF066
:102EC00083C087F684C088F685C089F627C486F05B
:102ED00028C487F029C488F087C683F088C684F0A8
:102EE00089C685F0E4ECAFF083C08AF684C08BF627
:102EF00085C08CF624C486F025C487F026C488F0EB
:102F00008AC683F08BC684F08CC685F0E4ECAFF003
:102F100083C08DF684C08EF685C08FF621C486F0FE
:102F200022C487F023C488F08DC683F08EC684F057
:102F30008FC685F0E4ECAFF083C090F684C091F6C4
:102F400085C092F61EC486F01FC487F020C488F0A6
:102F500090C683F091C684F092C685F0E4ECAFF0A1
:102F600083C093F684C094F685C095F61BC486F0A2
:102F70001CC487F01DC488F093C683F094C684F007
:102F800095C685F0E4ECAFF083C096F684C097F662
:102F900085C098F618C486F019C487F01AC488F062
:102FA00096C683F097C684F098C685F0E4ECAFF03F
:102FB00083C099F684C09AF685C09BF615C486F046
:102FC00016C487F017C488F099C683F09AC684F0B7
:102FD0009BC685F0E4ECAFF083C09CF684C09DF600
:102FE00085C09EF612C486F013C487F014C488F01E
:102FF0009CC683F09DC684F09EC685F0E4ECAFF0DD
:1030000083C09FF684C0A0F685C0A1F60FC486F0E9
:1030100010C487F011C488F09FC683F0A0C684F066
:10302000A1C685F0E4ECAFF083C0A2F684C0A3F69D
:1030300085C0A4F60CC486F00DC487F00EC488F0D9
:10304000A2C683F0A3C684F0A4C685F0E4ECAFF07A
:1030500083C0A5F684C0A6F685C0A7F609C486F08D
:103060000AC487F00BC488F0A5C683F0A6C684F016
:10307000A7C685F0E4ECAFF083C0A8F684C0A9F63B
:1030800085C0AAF606C486F007C487F008C488F095
:10309000A8C683F0A9C684F0AAC685F0E4ECAFF018
:1030A00083C0ABF684C0ACF685C0ADF603C486F031
:1030B00004C487F005C488F0ABC683F0ACC684F0C6
:1030C000ADC685F0E4ECAFF083C0AEF684C0AFF6D9
:1030D00085C0B0F6AEC683F0AFC684F0B0C685F04A
:1030E00000C486F001C487F002C488F0E4ECAFF0BD
:1030F00083C0E5F284C0E6F285C0E7F2E5C29BF04A
:10310000E6C29CF0E7C29DF0000E00019E6FF00E3B
:1031100000019F6F410E0001A06F89ECBFF09BC0C2
:10312000E5F29CC0E6F29DC0E7F2090E00016D6F6A
:10313000C90E00016E6F400E00016F6FE5C26AF0AC
:10314000E6C26BF0E7C26CF083ECBDF06AC083F0BE
:103150006BC084F06CC085F00B0E0001866F060E0C
:103160000001876FBF0E0001886FE4ECAFF083C0F1
:1031700022F584C023F585C024F522C5B7F023C508
:10318000B8F024C5B9F0CEECC8F0B7C01FF5B8C090
:1031900020F5B9C021F51200FD0E1D6EFF0E1E6E4A
:1031A00066ECD3F0FB0E1D6EFF0E1E6E66ECD3F0C8
:1031B000F50E0001A76FFF0E0001A86F270E00019A
:1031C000A96FFF0E0001AA6F9AEC86F02C0E30EC6E
:1031D000D5F0F50E0001A76FFF0E0001A86F410E9C
:1031E0000001A96FFE0E0001AA6F9AEC86F02C0E6A
:1031F00030ECD5F0F50E0001A76FFF0E0001A86FAF
:10320000F70E0001A96FFD0E0001AA6F9AEC86F07F
:103210002C0E30ECD5F0F50E0001A76FFF0E00016B
:10322000A86F430E0001A96FFF0E0001AA6F9AEC70
:1032300086F02C0E30ECD5F0F50E0001A76FFF0ED6
:103240000001A86F5F0E0001A96FFD0E0001AA6FBB
:103250009AEC86F02C0E30ECD5F0F50E0001A76F3D
:10326000FF0E0001A86F4C0E0001A96FFE0E0001B9
:10327000AA6F9AEC86F02C0E30ECD5F0F50E00011A
:10328000A76FFF0E0001A86F290E0001A96FFE0EA7
:103290000001AA6F9AEC86F02C0E30ECD5F0F50EFA
:1032A0000001A76FFF0E0001A86F8B0E0001A96F30
:1032B000FD0E0001AA6F9AEC86F02C0E30ECD5F0D2
:1032C000F50E0001A76FFF0E0001A86F320E00017E
:1032D000A96FFD0E0001AA6F9AEC86F02C0E30EC5F
:1032E000D5F0F50E0001A76FFF0E0001A86F410E8B
:1032F0000001A96FFD0E0001AA6F9AEC86F02C0E5A
:1033000030ECD5F0F50E0001A76FFF0E0001A86F9D
:10331000CD0E0001A96FFF0E0001AA6F9AEC86F096
:103320002C0E30ECD5F0F50E0001A76FFF0E00015A
:10333000A86F230E0001A96FFD0E0001AA6F9AEC81
:1033400086F02C0E30ECD5F0F50E0001A76FFF0EC5
:103350000001A86F6E0E0001A96FFD0E0001AA6F9B
:103360009AEC86F02C0E30ECD5F0F50E0001A76F2C
:10337000FF0E0001A86FB10E0001A96FFF0E000142
:10338000AA6F9AEC86F02C0E30ECD5F0F50E000109
:10339000A76FFF0E0001A86FB80E0001A96FFF0E06
:1033A0000001AA6F9AEC86F02C0E30ECD5F0F50EE9
:1033B0000001A76FFF0E0001A86FAA0E0001A96F00
:1033C000FF0E0001AA6F9AEC86F02C0E30ECD5F0BF
:1033D000F50E0001A76FFF0E0001A86FFF0E0001A0
:1033E000A96FFE0E0001AA6F9AEC86F02C0E30EC4D
:1033F000D5F0F50E0001A76FFF0E0001A86F090EB2
:103400000001A96FFF0E0001AA6F9AEC86F02C0E46
:1034100030ECD5F0F50E0001A76FFF0E0001A86F8C
:10342000F50E0001A96FFE0E0001AA6F9AEC86F05E
:103430002C0E30ECD5F0F50E0001A76FFF0E000149
:10344000A86FEB0E0001A96FFF0E0001AA6F9AECA6
:1034500086F02C0E30ECD5F0F50E0001A76FFF0EB4
:103460000001A86FE90E0001A96FFF0E0001AA6F0D
:103470009AEC86F02C0E30ECD5F0F50E0001A76F1B
:10348000FF0E0001A86FEE0E0001A96FFF0E0001F4
:10349000AA6F9AEC86F02C0E30ECD5F0F50E0001F8
:1034A000A76FFF0E0001A86FE40E0001A96FFF0EC9
:1034B0000001AA6F9AEC86F02C0E30ECD5F0F50ED8
:1034C0000001A76FFF0E0001A86FBD0E0001A96FDC
:1034D000FC0E0001AA6F9AEC86F02C0E30ECD5F0B1
:1034E000F50E0001A76FFF0E0001A86F500E00013E
:1034F000A96FFD0E0001AA6F9AEC86F02C0E30EC3D
:10350000D5F0F50E0001A76FFF0E0001A86F1D0E8C
:103510000001A96FFF0E0001AA6F9AEC86F02C0E35
:1035200030ECD5F0F50E0001A76FFF0E0001A86F7B
:10353000110E0001A96FFE0E0001AA6F9AEC86F031
:103540002C0E30ECD5F0F50E0001A76FFF0E000138
:10355000A86FE10E0001A96FFE0E0001AA6F9AECA0
:1035600086F02C0E30ECD5F0F50E0001A76FFF0EA3
:103570000001A86F040E0001A96FFE0E0001AA6FE2
:103580009AEC86F02C0E30ECD5F0F50E0001A76F0A
:10359000FF0E0001A86F4C0E0001A96FFF0E000185
:1035A000AA6F9AEC86F02C0E30ECD5F0F50E0001E7
:1035B000A76FFF0E0001A86F130E0001A96FFD0E8B
:1035C0000001AA6F9AEC86F02C0E30ECD5F0F50EC7
:1035D0000001A76FFF0E0001A86F7D0E0001A96F0B
:1035E000FD0E0001AA6F9AEC86F02C0E30ECD5F09F
:1035F000F50E0001A76FFF0E0001A86FDA0E0001A3
:10360000A96FFF0E0001AA6F9AEC86F02C0E30EC29
:10361000D5F0F50E0001A76FFF0E0001A86F700E28
:103620000001A96FFC0E0001AA6F9AEC86F02C0E27
:1036300030ECD5F0F50E0001A76FFF0E0001A86F6A
:103640001D0E0001A96FFE0E0001AA6F9AEC86F014
:103650002C0E30ECD5F0F50E0001A76FFF0E000127
:10366000A86FEA0E0001A96FFD0E0001AA6F9AEC87
:1036700086F02C0E30ECD5F0F50E0001A76FFF0E92
:103680000001A86FEB0E0001A96FFE0E0001AA6FEA
:103690009AEC86F02C0E30ECD5F0F50E0001A76FF9
:1036A000FF0E0001A86FDD0E0001A96FFD0E0001E5
:1036B000AA6F9AEC86F02C0E30ECD5F0F50E0001D6
:1036C000A76FFF0E0001A86F0A0E0001A96FFC0E84
:1036D0000001AA6F9AEC86F02C0E30ECD5F0F50EB6
:1036E0000001A76FFF0E0001A86F500E0001A96F27
:1036F000FC0E0001AA6F9AEC86F02C0E30ECD5F08F
:10370000F50E0001A76FFF0E0001A86F3D0E00012E
:10371000A96FFC0E0001AA6F9AEC86F02C0E30EC1B
:10372000D5F0F50E0001A76FFF0E0001A86F8E0EF9
:103730000001A96FFE0E0001AA6F9AEC86F02C0E14
:1037400030ECD5F0F50E0001A76FFF0E0001A86F59
:10375000B50E0001A96FFD0E0001AA6F9AEC86F06C
:103760002C0E30ECD5F0F50E0001A76FFF0E000116
:10377000A86FCD0E0001A96FFE0E0001AA6F9AEC92
:1037800086F02C0E30ECD5F0F50E0001A76FFF0E81
:103790000001A86F770E0001A96FFF0E0001AA6F4C
:1037A0009AEC86F02C0E30ECD5F0F50E0001A76FE8
:1037B000FF0E0001A86F030E0001A96FFD0E0001AE
:1037C000AA6F9AEC86F02C0E30ECD5F0F50E0001C5
:1037D000A76FFF0E0001A86F750E0001A96FFC0E08
:1037E0000001AA6F9AEC86F02C0E30ECD5F0F50EA5
:1037F0000001A76FFF0E0001A86F630E0001A96F03
:10380000FC0E0001AA6F9AEC86F02C0E30ECD5F07D
:10381000F50E0001A76FFF0E0001A86F870E0001D3
:10382000A96FFC0E0001AA6F9AEC86F02C0E30EC0A
:10383000D5F0F50E0001A76FFF0E0001A86F250E51
:103840000001A96FFC0E0001AA6F9AEC86F02C0E05
:1038500030ECD5F0F50E0001A76FFF0E0001A86F48
:10386000990E0001A96FFC0E0001AA6F9AEC86F078
:103870002C0E30ECD5F0F50E0001A76FFF0E000105
:10388000A86FE10E0001A96FFC0E0001AA6F9AEC6F
:1038900086F02C0E30ECD5F0F50E0001A76FFF0E70
:1038A0000001A86FF20E0001A96FFC0E0001AA6FC3
:1038B0009AEC86F02C0E30ECD5F0FD0E1D6EFF0E4E
:1038C0001E6E66ECD3F0FB0E1D6EFF0E1E6E66ECD8
:1038D000D3F01200F9C386F0FAC387F0FBC388F077
:1038E000F6C383F0F7C384F0F8C385F0E4ECAFF0DF
:1038F00083C0AAF084C0ABF085C0ACF0F3C386F0FF
:10390000F4C387F0F5C388F0AAC083F0ABC084F09D
:10391000ACC085F0E4ECAFF083C09BF084C09CF0B9
:1039200085C09DF0000E00019E6F400E00019F6F4C
:10393000400E0001A06F89ECBFF09BC0E7F49CC073
:10394000E8F49DC0E9F4400E0001866FFE0E000110
:10395000876FC40E0001886FE7C483F0E8C484F069
:10396000E9C485F0E4ECAFF083C06AF084C06BF08A
:1039700085C06CF08C0E00016D6F270E00016E6F1C
:103980003F0E00016F6F83ECBDF06AC02AF06BC080
:103990002BF06CC02CF072C486F073C487F074C432
:1039A00088F06FC483F070C484F071C485F0E4ECD7
:1039B000AFF083C0AAF084C0ABF085C0ACF06CC49B
:1039C00086F06DC487F06EC488F0AAC083F0ABC0E7
:1039D00084F0ACC085F0E4ECAFF083C09BF084C011
:1039E0009CF085C09DF0000E00019E6F400E00010E
:1039F0009F6F400E0001A06F89ECBFF09BC0E4F404
:103A00009CC0E5F49DC0E6F4400E0001866FFE0EFA
:103A10000001876FC40E0001886FE4C483F0E5C421
:103A200084F0E6C485F0E4ECAFF083C06AF084C0B3
:103A30006BF085C06CF0400E00016D6FDB0E000175
:103A40006E6F3C0E00016F6F83ECBDF06AC018F121
:103A50006BC019F16CC01AF184C486F085C487F07C
:103A600086C488F081C483F082C484F083C485F066
:103A7000E4ECAFF083C0AAF084C0ABF085C0ACF03A
:103A80007EC486F07FC487F080C488F0AAC083F02B
:103A9000ABC084F0ACC085F0E4ECAFF083C09BF029
:103AA00084C09CF085C09DF0000E00019E6F400E0A
:103AB00000019F6F400E0001A06F89ECBFF09BC01A
:103AC000F9F49CC0FAF49DC0FBF4400E0001866F2F
:103AD000FE0E0001876FC40E0001886FF9C483F0E9
:103AE000FAC484F0FBC485F0E4ECAFF083C06AF064
:103AF00084C06BF085C06CF08C0E00016D6F270EDA
:103B000000016E6F3F0E00016F6F83ECBDF06AC065
:103B100030F06BC031F06CC032F07BC486F07CC4F6
:103B200087F07DC488F078C483F079C484F07AC4C7
:103B300085F0E4ECAFF083C0AAF084C0ABF085C0A0
:103B4000ACF075C486F076C487F077C488F0AAC05C
:103B500083F0ABC084F0ACC085F0E4ECAFF083C080
:103B60009BF084C09CF085C09DF0000E00019E6F0C
:103B7000400E00019F6F400E0001A06F89ECBFF066
:103B80009BC0F6F49CC0F7F49DC0F8F4400E000111
:103B9000866FFE0E0001876FC40E0001886FF6C4A9
:103BA00083F0F7C484F0F8C485F0E4ECAFF083C090
:103BB0006AF084C06BF085C06CF0400E00016D6F40
:103BC000DB0E00016E6F3C0E00016F6F83ECBDF0E9
:103BD0006AC02DF16BC02EF16CC02FF169C486F064
:103BE0006AC487F06BC488F066C483F067C484F04D
:103BF00068C485F0E4ECAFF083C0AAF084C0ABF0F9
:103C000085C0ACF063C486F064C487F065C488F0F6
:103C1000AAC083F0ABC084F0ACC085F0E4ECAFF098
:103C200083C09BF084C09CF085C09DF0000E000115
:103C30009E6F400E00019F6F400E0001A06F89EC47
:103C4000BFF09BC0DEF49CC0DFF49DC0E0F4400EEA
:103C50000001866FFE0E0001876FC40E0001886FA1
:103C6000DEC483F0DFC484F0E0C485F0E4ECAFF0A0
:103C700083C06AF084C06BF085C06CF08C0E0001CC
:103C80006D6F270E00016E6F3F0E00016F6F83ECAA
:103C9000BDF06AC027F06BC028F06CC029F060C48A
:103CA00086F061C487F062C488F05DC483F05EC4AE
:103CB00084F05FC485F0E4ECAFF083C0AAF084C068
:103CC000ABF085C0ACF05AC486F05BC487F05CC42E
:103CD00088F0AAC083F0ABC084F0ACC085F0E4ECFF
:103CE000AFF083C09BF084C09CF085C09DF0000EB7
:103CF00000019E6F400E00019F6F400E0001A06FFB
:103D000089ECBFF09BC0DBF49CC0DCF49DC0DDF40B
:103D1000400E0001866FFE0E0001876FC40E000189
:103D2000886FDBC483F0DCC484F0DDC485F0E4EC90
:103D3000AFF083C06AF084C06BF085C06CF0400EB9
:103D400000016D6FDB0E00016E6F3C0E00016F6FA6
:103D500083ECBDF06AC003F16BC004F16CC005F1E7
:103D600030C086F031C087F032C088F02AC083F0BE
:103D70002BC084F02CC085F0E4ECAFF083C0AAF037
:103D800084C0ABF085C0ACF027C086F028C087F0B7
:103D900029C088F0AAC083F0ABC084F0ACC085F025
:103DA000E4ECAFF083C09BF084C09CF085C09DF034
:103DB000000E00019E6F400E00019F6F400E00013B
:103DC000A06F89ECBFF09BC000F29CC001F29DC0C7
:103DD00002F22DC186F02EC187F02FC188F018C1E4
:103DE00083F019C184F01AC185F0E4ECAFF083C010
:103DF000AAF084C0ABF085C0ACF003C186F004C16A
:103E000087F005C188F0AAC083F0ABC084F0ACC0D5
:103E100085F0E4ECAFF083C09BF084C09CF085C0DB
:103E20009DF0000E00019E6F400E00019F6F400E3E
:103E30000001A06F89ECBFF09BC000F19CC001F1B4
:103E40009DC002F1120000017F6F00017FAF2BD1F6
:103E500000017F6D00017F51800A120FD8A0AAD007
:103E6000000E0001676F030E666F000E266E0A0ECD
:103E7000256E000E206E640E1F6E00017F511D6EB8
:103E80001E6A1DBE1E06A4ECD0F01DC023F01EC08D
:103E900024F096ECCDF0090E23240001646F000E8F
:103EA00024200001656F4BECD3F0A10E00016425C6
:103EB000F66EFB0E00016521F76EF86A000EF8221F
:103EC0000900F5CF6DF00900F5CF6EF00A00F5CFCF
:103ED0006FF0000E266E640E256E00017F51236E7A
:103EE000246A23BE240696ECCDF0120E2324000192
:103EF000646F000E24200001656F000E0001676FE3
:103F0000030E666F4BECD3F0A10E00016425F66E34
:103F1000FB0E00016521F76EF86A000EF822090019
:103F2000F5CF6AF00900F5CF6BF00A00F5CF6CF021
:103F300083ECBDF06AC07CF06BC07DF06CC07EF09D
:103F40007CC06AF07DC06BF07EC06CF0000E00019A
:103F5000676F030E666F000E206E0A0E1F6E000163
:103F60007F511D6E1E6A1DBE1E06A4ECD0F01DC042
:103F700064F01EC065F04BECD3F0A10E0001642587
:103F8000F66EFB0E00016521F76EF86A000EF8224E
:103F90000900F5CF6DF00900F5CF6EF00A00F5CFFE
:103FA0006FF083ECBDF06AC079F06BC07AF06CC042
:103FB0007BF0120000017F51800A750FD8A05DD000
:103FC000000E266E0A0E256E00017F51236E246AB4
:103FD00023BE240696ECCDF0090E23240001646F65
:103FE000000E24200001656F000E0001676F030EB4
:103FF000666F4BECD3F0A10E00016425F66EFB0E4C
:1040000000016521F76EF86A000EF8220900F5CF6D
:104010006AF00900F5CF6BF00A00F5CF6CF0000EE6
:104020000001676F030E666F000E206E0A0E1F6E92
:1040300000017F511D6E1E6A1DBE1E06A4ECD0F04D
:104040001DC064F01EC065F04BECD3F0A10E000162
:104050006425F66EFB0E00016521F76EF86A000E0E
:10406000F8220900F5CF6DF00900F5CF6EF00A00D7
:10407000F5CF6FF083ECBDF096D700017F51030DB3
:10408000A10EF324F66EFB0EF420F76EF86A000E14
:10409000F8220900F5CF79F00900F5CF7AF00A008F
:1040A000F5CF7BF0120000017F51800A120FD8A0DB
:1040B000AAD0000E0001676F030E666F000E266E19
:1040C0000A0E256E000E206E640E1F6E00017F51D9
:1040D0001D6E1E6A1DBE1E06A4ECD0F01DC023F08E
:1040E0001EC024F096ECCDF0090E23240001646F6D
:1040F000000E24200001656F4BECD3F0C80E0001C8
:104100006425F66EFB0E00016521F76EF86A000E5D
:10411000F8220900F5CF6DF00900F5CF6EF00A0026
:10412000F5CF6FF0000E266E640E256E00017F51F4
:10413000236E246A23BE240696ECCDF0120E2324AF
:104140000001646F000E24200001656F000E000165
:10415000676F030E666F4BECD3F0C80E0001642549
:10416000F66EFB0E00016521F76EF86A000EF8226C
:104170000900F5CF6AF00900F5CF6BF00A00F5CF22
:104180006CF083ECBDF06AC07CF06BC07DF06CC05D
:104190007EF07CC06AF07DC06BF07EC06CF0000EDB
:1041A0000001676F030E666F000E206E0A0E1F6E11
:1041B00000017F511D6E1E6A1DBE1E06A4ECD0F0CC
:1041C0001DC064F01EC065F04BECD3F0C80E0001BA
:1041D0006425F66EFB0E00016521F76EF86A000E8D
:1041E000F8220900F5CF6DF00900F5CF6EF00A0056
:1041F000F5CF6FF083ECBDF06AC079F06BC07AF058
:104200006CC07BF0120000017F51800A750FD8A0AE
:104210005DD0000E266E0A0E256E00017F51236EC2
:10422000246A23BE240696ECCDF0090E2324000157
:10423000646F000E24200001656F000E0001676F9F
:10424000030E666F4BECD3F0C80E00016425F66ECA
:10425000FB0E00016521F76EF86A000EF8220900D6
:10426000F5CF6AF00900F5CF6BF00A00F5CF6CF0DE
:10427000000E0001676F030E666F000E206E0A0EBF
:104280001F6E00017F511D6E1E6A1DBE1E06A4EC2E
:10429000D0F01DC064F01EC065F04BECD3F0C80E2A
:1042A00000016425F66EFB0E00016521F76EF86AC9
:1042B000000EF8220900F5CF6DF00900F5CF6EF081
:1042C0000A00F5CF6FF083ECBDF096D700017F5167
:1042D000030DC80EF324F66EFB0EF420F76EF86A99
:1042E000000EF8220900F5CF79F00900F5CF7AF039
:1042F0000A00F5CF7BF0120069C2B4F46AC2B5F4CB
:104300006BC2B6F463C269F264C26AF265C26BF250
:104310005DC263F25EC264F25FC265F257C25DF2D3
:1043200058C25EF259C25FF251C257F252C258F2FD
:1043300053C259F24BC251F24CC252F24DC253F227
:1043400033C24BF234C24CF235C24DF23FC233F2AB
:1043500040C234F241C235F239C23FF23AC240F2B1
:104360003BC241F236C239F237C23AF238C23BF2AE
:104370000A0E0101C06102D00101C02B0A0E010129
:10438000C019D8A4C5D069C286F06AC287F06BC2D2
:1043900088F0B4C483F0B5C484F0B6C485F0E4EC0E
:1043A000AFF083C0AAF084C0ABF085C0ACF063C2AC
:1043B00086F064C287F065C288F0AAC083F0ABC003
:1043C00084F0ACC085F0E4ECAFF083C0ADF084C005
:1043D000AEF085C0AFF05DC286F05EC287F05FC20E
:1043E00088F0ADC083F0AEC084F0AFC085F0E4ECDF
:1043F000AFF083C0B0F084C0B1F085C0B2F057C256
:1044000086F058C287F059C288F0B0C083F0B1C0BE
:1044100084F0B2C085F0E4ECAFF083C0B3F084C0A8
:10442000B4F085C0B5F051C286F052C287F053C2D5
:1044300088F0B3C083F0B4C084F0B5C085F0E4EC7C
:10444000AFF083C0B6F084C0B7F085C0B8F04BC2FF
:1044500086F04CC287F04DC288F0B6C083F0B7C07A
:1044600084F0B8C085F0E4ECAFF083C0B9F084C04C
:10447000BAF085C0BBF033C286F034C287F035C2D3
:1044800088F0B9C083F0BAC084F0BBC085F0E4EC1A
:10449000AFF083C0BCF084C0BDF085C0BEF03FC2A9
:1044A00086F040C287F041C288F0BCC083F0BDC036
:1044B00084F0BEC085F0E4ECAFF083C0BFF084C0F0
:1044C000C0F085C0C1F039C286F03AC287F03BC265
:1044D00088F0BFC083F0C0C084F0C1C085F0E4ECB8
:1044E000AFF083C09BF084C09CF085C09DF0000EAF
:1044F00000019E6F200E00019F6F410E0001A06F12
:1045000089ECBFF09BC0D2F09CC0D3F09DC0D4F02A
:104510006CC2B7F46DC2B8F46EC2B9F466C26CF284
:1045200067C26DF268C26EF260C266F261C267F283
:1045300062C268F25AC260F25BC261F25CC262F2AD
:1045400054C25AF255C25BF256C25CF24EC254F2E9
:104550004FC255F250C256F248C24EF249C24FF213
:104560004AC250F242C248F243C249F244C24AF23D
:104570003CC242F23DC243F23EC244F245C23CF26A
:1045800046C23DF247C23EF20A0E0101C16102D0AD
:104590000101C12B0A0E0101C119D8A412006CC27D
:1045A00086F06DC287F06EC288F0B7C483F0B8C4DD
:1045B00084F0B9C485F0E4ECAFF083C0AAF084C005
:1045C000ABF085C0ACF066C286F067C287F068C207
:1045D00088F0AAC083F0ABC084F0ACC085F0E4ECF6
:1045E000AFF083C0ADF084C0AEF085C0AFF060C264
:1045F00086F061C287F062C288F0ADC083F0AEC0C1
:1046000084F0AFC085F0E4ECAFF083C0B0F084C0BC
:10461000B1F085C0B2F05AC286F05BC287F05CC2CE
:1046200088F0B0C083F0B1C084F0B2C085F0E4EC93
:10463000AFF083C0B3F084C0B4F085C0B5F054C20D
:1046400086F055C287F056C288F0B3C083F0B4C07C
:1046500084F0B5C085F0E4ECAFF083C0B6F084C060
:10466000B7F085C0B8F04EC286F04FC287F050C296
:1046700088F0B6C083F0B7C084F0B8C085F0E4EC31
:10468000AFF083C0B9F084C0BAF085C0BBF048C2B7
:1046900086F049C287F04AC288F0B9C083F0BAC038
:1046A00084F0BBC085F0E4ECAFF083C0BCF084C004
:1046B000BDF085C0BEF042C286F043C287F044C25E
:1046C00088F0BCC083F0BDC084F0BEC085F0E4ECCF
:1046D000AFF083C0BFF084C0C0F085C0C1F03CC261
:1046E00086F03DC287F03EC288F0BFC083F0C0C0F4
:1046F00084F0C1C085F0E4ECAFF083C09BF084C0CF
:104700009CF085C09DF0000E00019E6F200E000100
:104710009F6F410E0001A06F89ECBFF09BC0BAF4FF
:104720009CC0BBF49DC0BCF412000101BB51D8B4C5
:104730001200000E0101BB6FB69801014D5101013D
:104740004F5D01014E5101015059D8B035D04FC1D4
:10475000AAF050C1ABF00001AA1FAB1FAA4BAB2BB4
:1047600001014D510001AA2701014E510001AB2367
:10477000010E0001AA250201FA6F000E0001AB2113
:104780000201FB6FB4C2AAF0B5C2ABF00001AA1FD0
:10479000AB1FAA4BAB2B010153510001AA2501010C
:1047A000476F010154510001AB210101486F000E18
:1047B0000501C46F000E3ED04FC1AAF050C1ABF04E
:1047C0000001AA1FAB1FAA4BAB2B01014D510001E9
:1047D000AA2701014E510001AB23010E0001AA25B9
:1047E0000201FA6F000E0001AB210201FB6FB4C29F
:1047F000AAF0B5C2ABF00001AA1FAB1FAA4BAB2BAE
:10480000010153510001AA250101476F01015451D3
:104810000001AB210101486FFF0E01014725010195
:10482000476FFF0E010148210101486F000E05018D
:10483000C46F010EC36FFAC260F0FBC261F084EC7A
:10484000D4F060C06AF061C06BF062C06CF0380EEA
:1048500000016D6F860E00016E6F360E00016F6FE6
:1048600083ECBDF06AC093F46BC094F46CC095F413
:10487000250E00016D6F860E00016E6F3E0E000169
:104880006F6F47C160F048C161F084ECD4F060C044
:104890006AF061C06BF062C06CF083ECBDF06AC07E
:1048A00083F06BC084F06CC085F093C486F094C430
:1048B00087F095C488F0E4ECAFF083C0EDF484C0D9
:1048C000EEF485C0EFF4000E00019B6F800E000136
:1048D0009C6F3F0E00019D6FEDC49EF0EEC49FF0F3
:1048E000EFC4A0F089ECBFF09BC0EAF49CC0EBF4ED
:1048F0009DC0ECF4020E0101B26102D00101B22BA5
:10490000020E0101B219D8A49DD0000E00016D6FF6
:10491000700E00016E6F420E00016F6FEAC46AF004
:10492000EBC46BF0ECC46CF083ECBDF06AC09BF0A0
:104930006BC09CF06CC09DF0000E00019E6F800E5D
:1049400000019F6F3F0E0001A06F89ECBFF09BC07C
:10495000ABF49CC0ACF49DC0ADF427C12AF128C1D2
:104960002BF129C12CF1ABC427F1ACC428F1ADC4A3
:1049700029F10001D805D8B405D0020E0001D819DC
:10498000D8A451D0000E0001866F200E0001876F61
:10499000410E0001886F2AC183F02BC184F02CC125
:1049A00085F0E4ECAFF083C08FF084C090F085C058
:1049B00091F027C192F028C193F029C194F009EC3D
:1049C000C8F00001D8A022D027C18FF028C190F0F4
:1049D00029C191F0000E0001866F200E0001876F43
:1049E000C10E0001886F2AC183F02BC184F02CC155
:1049F00085F0E4ECAFF083C092F084C093F085C002
:104A000094F009ECC8F00001D8B016D02AC12DF0FE
:104A10002BC12EF02CC12FF02AC127F12BC128F178
:104A20002CC129F10FD00001D851D8B405D0030E04
:104A30000001D819D8A406D027C12DF028C12EF026
:104A400029C12FF00001D805D8A40CD00201A15132
:104A500012E1020E0201A05DD8B00DD00201A04B00
:104A6000A12B09D00001D805D8B405D0000E020151
:104A7000A16F000EA06F020E0201A0190201A11188
:104A8000D8A405D0000E0201A36F010EA26F000E84
:104A90000201B76F000EB66F47C1D1F548C1D2F51C
:104AA000000E0201FB6F000EFA6F000E0101486F4D
:104AB000000E476F000E0401EA6F000E0401EB6F59
:104AC000000E0401EC6F000E0401ED6F000E0401F6
:104AD000EE6F000E0401EF6FB688B7981200C2D1D6
:104AE000020E0101FE6F000E01011E6F000E01019A
:104AF0001F6F000E0101206F000E0101156F000EE7
:104B00000101166F000E0101176F000E3F6E450E7A
:104B10003F6401D056D0010EC8ECD3F01DC0AAF2FC
:104B20001EC0ABF2090EC8ECD3F01DC0A8F21EC027
:104B3000A9F21EC18FF01FC190F020C191F0AAC24E
:104B400060F0ABC261F084ECD4F060C092F061C060
:104B500093F062C094F009ECC8F00001D8B00CD01A
:104B6000AAC260F0ABC261F084ECD4F060C01EF168
:104B700061C01FF162C020F115C18FF016C190F025
:104B800017C191F0A8C260F0A9C261F084ECD4F022
:104B900060C092F061C093F062C094F009ECC8F07C
:104BA0000001D8B00CD0A8C260F0A9C261F084ECBA
:104BB000D4F060C015F161C016F162C017F13F2A50
:104BC000A6D7F6C3F9F3F7C3FAF3F8C3FBF3F3C3BD
:104BD000F6F3F4C3F7F3F5C3F8F31EC1F3F31FC103
:104BE000F4F320C1F5F36FC472F470C473F471C4AC
:104BF00074F46CC46FF46DC470F46EC471F415C1B8
:104C00006CF416C16DF417C16EF41200030E0101AD
:104C1000FE6F000E0201786F000E0201796F000E28
:104C200002017A6F000E0201726F000E0201736FB3
:104C3000000E0201746F000E3F6E450E3F6401D0FE
:104C400056D0020EC8ECD3F01DC0D2F21EC0D3F273
:104C50000A0EC8ECD3F01DC0D0F21EC0D1F278C24B
:104C60008FF079C290F07AC291F0D2C260F0D3C2D4
:104C700061F084ECD4F060C092F061C093F062C047
:104C800094F009ECC8F00001D8B00CD0D2C260F0AA
:104C9000D3C261F084ECD4F060C078F261C079F2E4
:104CA00062C07AF272C28FF073C290F074C291F057
:104CB000D0C260F0D1C261F084ECD4F060C092F058
:104CC00061C093F062C094F009ECC8F00001D8B064
:104CD0000CD0D0C260F0D1C261F084ECD4F060C0DE
:104CE00072F261C073F262C074F23F2AA6D781C427
:104CF00084F482C485F483C486F47EC481F47FC4C2
:104D000082F480C483F478C27EF479C27FF47AC2DC
:104D100080F478C47BF479C47CF47AC47DF475C4DF
:104D200078F476C479F477C47AF472C275F473C2F5
:104D300076F474C277F41200010E0101FE6F000ECA
:104D40000201096F000E02010A6F000E02010B6FD3
:104D5000000E0201066F000E0201076F000E020135
:104D6000086F000E3F6E450E3F6401D056D0030E13
:104D7000C8ECD3F01DC088F21EC089F20B0EC8EC3F
:104D8000D3F01DC086F21EC087F209C28FF00AC29E
:104D900090F00BC291F088C260F089C261F084EC9F
:104DA000D4F060C092F061C093F062C094F009EC5E
:104DB000C8F00001D8B00CD088C260F089C261F0A0
:104DC00084ECD4F060C009F261C00AF262C00BF258
:104DD00006C28FF007C290F008C291F086C260F060
:104DE00087C261F084ECD4F060C092F061C093F0AF
:104DF00062C094F009ECC8F00001D8B00CD086C2B3
:104E000060F087C261F084ECD4F060C006F261C04B
:104E100007F262C008F23F2AA6D766C469F467C4E5
:104E20006AF468C46BF463C466F464C467F465C46C
:104E300068F409C263F40AC264F40BC265F45DC489
:104E400060F45EC461F45FC462F45AC45DF45BC490
:104E50005EF45CC45FF406C25AF407C25BF408C295
:104E60005CF412000101FE51010AD8B439D6030ADC
:104E7000D8B4CCD6010AD8A412005ED7B69A0101E4
:104E800037510101395D0101385101013A59D8B05A
:104E90002FD039C1AAF03AC1ABF00001AA1FAB1F55
:104EA000AA4BAB2B010137510001AA270101385150
:104EB0000001AB23010E0001AA250201F46F000ED0
:104EC0000001AB210201F56FB2C2AAF0B3C2ABF090
:104ED0000001AA1FAB1FAA4BAB2B010151510001CE
:104EE000AA2502018C6F010152510001AB2138D07B
:104EF00039C1AAF03AC1ABF00001AA1FAB1FAA4BFF
:104F0000AB2B010137510001AA27010138510001E3
:104F1000AB23010E0001AA250201F46F000E00016F
:104F2000AB210201F56FB2C2AAF0B3C2ABF000012F
:104F3000AA1FAB1FAA4BAB2B010151510001AA259F
:104F400002018C6F010152510001AB2102018D6FF2
:104F5000FF0E02018C2502018C6FFF0E02018D21D4
:104F600002018D6FF4C260F0F5C261F084ECD4F000
:104F700060C06AF061C06BF062C06CF0380E000176
:104F80006D6F860E00016E6F360E00016F6F83EC41
:104F9000BDF06AC08AF46BC08BF46CC08CF4250E33
:104FA00000016D6F860E00016E6F3E0E00016F6F87
:104FB0008CC260F08DC261F084ECD4F060C06AF005
:104FC00061C06BF062C06CF083ECBDF06AC083F02E
:104FD0006BC084F06CC085F08AC486F08BC487F007
:104FE0008CC488F0E4ECAFF083C0E8F284C0E9F24E
:104FF00085C0EAF2E8C29BF0E9C29CF0EAC29DF0EB
:10500000000E00019E6F800E00019F6F400E000198
:10501000A06F89ECBFF09BC0E8F29CC0E9F29DC094
:10502000EAF2000E00019B6F800E00019C6F3F0EA4
:1050300000019D6FE8C29EF0E9C29FF0EAC2A0F0B5
:1050400089ECBFF09BC0E1F49CC0E2F49DC0E3F4A6
:10505000020E0101856102D00101852B020E0101C2
:105060008519D8A42ED00CC10FF10DC110F10EC1BD
:1050700011F1000E00016D6F700E00016E6F420E97
:1050800000016F6FE1C46AF0E2C46BF0E3C46CF03E
:1050900083ECBDF06AC09BF06BC09CF06CC09DF0CF
:1050A000000E00019E6F000E00019F6F400E000178
:1050B000A06F89ECBFF09BC00CF19CC00DF19DC0AE
:1050C0000EF1020E0001D819D8A451D0CD0E000166
:1050D0006D6F4C0E00016E6F3F0E00016F6F0CC1C3
:1050E0006AF00DC16BF00EC16CF083ECBDF06AC0CC
:1050F0008FF06BC090F06CC091F00FC192F010C1B6
:1051000093F011C194F009ECC8F00001D8B022D09E
:105110000FC18FF010C190F011C191F09A0E0001F3
:105120006D6F990E00016E6F3F0E00016F6F0CC125
:105130006AF00DC16BF00EC16CF083ECBDF06AC07B
:1051400092F06BC093F06CC094F009ECC8F00001D1
:10515000D8A00DD00FC1CFF010C1D0F011C1D1F047
:105160000FC10CF110C10DF111C10EF106D00CC12F
:10517000CFF00DC1D0F00EC1D1F0CFC080F0D0C0C3
:1051800081F0D1C082F0D3ECC0F080C08EF281C03B
:105190008FF2000E0201B16F000EB06F000E02011F
:1051A000F56F000EF46F000E0401E16F000E0401B4
:1051B000E26F000E0401E36F000E04018A6F000E1F
:1051C00004018B6F000E04018C6F000E0201E86F6A
:1051D000000E0201E96F000E0201EA6FB68AB79A6B
:1051E00012003C50D8B4D0D0000E016EB90E026E41
:1051F000430E036E2AC004F02BC005F02CC006F04D
:105200002EECCEF0D8B0C0D0000E016EB90E026EFA
:10521000430E036E30C004F031C005F032C006F01A
